S01500005350495F5461705F53656E736F722E73333796
S214000000B8100020110300007701000077010000FF
S2140000107701000077010000770100000000000073
S2140000200000000000000000000000007701000053
S2140000307701000000000000770100007701000053
S214000040DFF800F069000020DFF800F0270000204D
S214000050F8B5044625464FF0FF3080260146FF20BF
S21400006000F08AF8761EF9D180344FF4F06600F07E
S21400007022F8761EFBD14435A9884E1C06E04FF4C4
S214000080006700F018F87F1EFBD1761CA988090AC5
S214000090F6B2B142F3DA4FF420540146FF2000F0E6
S2140000A06BF8641EF9D12968C043814201D1012052
S2140000B0F2BD0020F2BD014614F8010B00F05CB85A
S2140000C0F8B504460D46164610E02846FFF7B8FF7A
S2140000D03746B7F5006F88BF4FF4006722463946AB
S2140000E02846FFF7B1FF3D443C44F61B012EECDAF0
S2140000F0F1BD000038B51D48016841F020010160DF
S2140001004FF4904440F6A72204F110000188914273
S2140001101AD1018F080AC50201F0FF00C002B0F52F
S214000120804F11D12046FFF793FF48B14FF400608F
S2140001302844A0F580424FF480412046FFF7C0FFD8
S2140001402046FFF77DFF05E04FF400600444B4F559
S214000150802FD9D34FF48040054A41691160016869
S2140001608D464068BDE8324000470000B0400E4073
S21400017008ED00E0BEE7FEE70A0A484000F0FF0090
S21400018008214308C00746BF034858401846491E82
S214000190F7D15040704700002083B8ED264A5060E3
S2140001A001201060D160082010601069C007FCD4E0
S2140001B07047F8B5214C0546206840F001000E4611
S2140001C01746206005E057F8041BFFF7E7FF2D1DD4
S2140001D0361F042E2846F6D23EB139684FF0FF325D
S2140001E0F3009A401143FFF7D9FF2068400840000B
S2140001F02060F1BD10B5114A136843F00103136087
S2140002004FF0FF31034602E053F8044B214000F55F
S2140002100064A342F8D311F1010F07D090600120CB
S2140002205060022050605069C007FCD41068400837
S2140002304000106010BD00000C000E4008000E408C
S21400024010B450F8041B79B10268436802440830C1
S214000250DC0744BFA9F10104E31852F8044B43F845
S214000260044B091FF9D1ECE710BC704710B50749DD
S21400027079441831064C7C44163404E00A68081D9C
S214000280114488470146A142F8D110BD2C00000059
S2140002903C0000004EF68851CEF20001086840F49B
S2140002A070000860BFF34F8FBFF36F8F4FF0007082
S2140002B0E1EE100A7047000089FFFFFFA40000006F
S2140002C0DCFEFFFF100000200000000000F00BF82E
S2140002D0002801D0FFF7CAFF0020AFF30080FFF729
S2140002E049FF00F002F80120704700F001B8000056
S2140002F00746384600F002F8FBE7000080B5AFF38B
S2140003000080024A11001820ABBEFBE72600020060
S214000310AFF30080FFF7BEFFFFF7D8FF0000000036
S21400032000000000000000000000000000000000C8
S21400033000000000000000000000000000000000B8
S21400034000000000000000000000000000000000A8
S2140003500000000000000000000000000000000098
S21400400000480020F30D020067720000CF79000020
S214004010A70A000100410000000000800000000028
S214004020C335E1AC00000000000000000000000006
S214004030000000000000000000000000000000007B
S21400404000000000206D73B10000000000000000BA
S21400405000000000FFFFFFFF00000000000000005F
S214004060000000000000000000000000000000004B
S214004070000000000000000000000000000000003B
S214004080000000000000000000000000000000002B
S214004090000000000000000000000000000000001B
S2140040A0000000000000000000000000000000000B
S2140040B000000000000000000000000000000000FB
S2140040C000000000000000000000000000000000EB
S2140040D000000000000000000000000000000000DB
S2140040E000000000000000000000000000000000CB
S2140040F000000000000000000000000000000000BB
S21400410000480020F30D020067720000CF7900001F
S214004110937A00006F890000B38900000000000059
S214004120000000000000000000000000B79D000036
S214004130EF9F00000000000037A200001FCE000026
S214004140C19E0100676301005BDA00006F63010037
S214004150B16301008F6301008D630100A963010054
S2140041600FE500002FF100009BF20000EB190100A4
S2140041706323010067230100172F0100AB2F010006
S214004180EF3401008B3E01005351010073510100D2
S2140041908F6101001B7401002F840100BBDF01004A
S2140041A0CFE1010067F7010063F9010099630100A0
S2140041B0A163010083F90100E3FE01004F0902003C
S2140041C01FF901000D0E02000000000000000000B4
S2140041D000000000000000000000000000000000DA
S2140041E000000000000000000000000000000000CA
S2140041F000000000000000000000000000000000BA
S21400420002986003029866030298E60502980A027E
S21400421002987E0302988C0302987E03029800049C
S2140042200298D0040298F60402982A0502983805E7
S21400423002989E050298D0050763076301DB0A71A2
S21400424090B9637902982203076300B902EC00CDA7
S214004250114502EC00CC411103B804D91E72073197
S214004260911210DA087102DD1272147002B807603B
S21400427006987C0E3038087208B80298700602EC71
S21400428000CA05B801DB127120DA0E7110DAEC7282
S21400429001DA0A71ADB80A7023DAE07202EC00C8DF
S2140042A007689111173111402111C03111400119D1
S2140042B090B820DA04716178411108D904716278E7
S2140042C020D904726378273123DD0872C0DA0471BE
S2140042D0607803B8411107310872A11508359C7142
S2140042E002DD2872A11108D9927102D91E72CCDAA9
S2140042F08A7206B802DB0C71026D5111FFD9527238
S2140043000765054D4C720298220321114049C0D919
S2140043103E71A0314115403501655141036108DA0F
S214004320207204DA2A721049A1150235067108DBDC
S214004330107201340C71076B80DB147190B86778CB
S21400434000C00D0F0C0D06987E0E01D8087207B837
S21400435002987006CC32204A00C00517085006980E
S2140043607E0E113001420DDA6271208800C1C61837
S214004370000020BB04DA0E7208DA087242B903693C
S214004380F823E8233114056B01DA06710649024B5F
S214004390076B076B00C0580F00213810BC2002DAEC
S2140043A0107100B9FF21A11380DB06717CB9076983
S2140043B018100298A60200C3040F0021341080D8FB
S2140043C04671EFBA0698C20C00920362DDDA987264
S2140043D0A11101D9327100C23810084024120423FA
S2140043E0281302EC00C804D9167104BA18300871F4
S2140043F00060FD20012A02EC00C8FF22FA7604DCE9
S214004400067218B87378029822030698D00700B888
S214004410011A91101730011900C202020000069816
S214004420900604D9067101B802A800C0040F002146
S214004430041380DB06710298380001DB607100C24D
S214004440600F002124111114FF3402EC00C8FF2471
S214004450FA7607611138076106988C0E0761111409
S2140044600111411006988C0E01D8087203B8029804
S2140044707006042202DB16712410112811280698F3
S214004480A00E00C418000840FF200814FA222410CA
S2140044900760076006988C0E01D8087120BC10DBF8
S2140044A006720298220300BB00C1580F00211415A3
S2140044B0511207620762C021112CFF320E7140882C
S2140044C0511406982C034143009441115112076A77
S2140044D0FF320E715114076406982C03076C414393
S2140044E000C15C0F00211410013BB82114113110DB
S2140044F0FF300C7104610112006001DAF8713110AE
S2140045000760FF300C7100610112006001DAF8717B
S21400451001D90C7288B8787804B8029870060298A8
S214004520B6010698C00C00B8477800F83088508866
S214004530FF34087102ECFF24F87002EC00CD141072
S21400454001BB5150FFD8047131440760006B10DB8B
S214004550F2710421FF22E4720F4C0095009300A034
S2140045600698D00700F80698D00700C5980F0021D7
S21400457054150698380900C59C0F002100F80698C7
S214004580D0070698860B0698C40A00F80698D00747
S21400459010B902BA0698920600C59C0F002100F8D2
S2140045A09112033288B903DE44727179A11020D8C3
S2140045B00A710698380900B9587000C3040F002124
S2140045C0341380DB1C7100C3A8100840A1141034FB
S2140045D0024C481300BC481391140764FF34481378
S2140045E08CBB627B40D80871517900BA7079076A33
S2140045F000C0A000084006985E0E042002985E0EDA
S2140046000698D00700BD06983E0810B903DC047172
S21400461000B902BA0698920604D9067101D840710C
S214004620811008D8107106983E0803DC087218B886
S214004630717826700698B004FFD80C7288B8477850
S21400464000B844783E70911010D80E7100BB00C4BC
S2140046506C5008400698CC0620B802A800F800C0A7
S214004660040F0021041320DB1A71911010D8087172
S2140046708CB844789C7008DB9872A11308DB9272A1
S21400468003BD0698A4040698860B00C5A00F00215B
S21400469006983E0803DC0472042554150698C009E3
S2140046A00298E80C9110015503355150011900A0ED
S2140046B001B8811180D9187100C10C50084014103F
S2140046C004300C7200C1A45008401410013000A041
S2140046D00698D0070698860B00BD0698A40488B8EE
S2140046E0477800B8447800C5A80F002154150698EE
S2140046F0C0090298E80C0698D0070698B004FFD8C0
S214004700067208B8607800C200000202069890069A
S21400471000F806986A0E88B850785178911104D936
S214004720047248788CB8427800A00698D00706989D
S21400473012050698C40A00F80698D00706983E08A0
S21400474007DC0A7200C59C0F002100F80698C40A10
S21400475003B9911004D8047100B900C20000020029
S2140047600698920601D8207200C0040F002104119A
S21400477020D91471076101D9E0728110076001D851
S214004780D8728CB864780698120500C5AC0F002164
S21400479054150698380900C5B00F002100F8069891
S2140047A0D007811108D90C7118B8717820B802A802
S2140047B000F80698120500BD0698A40488B8477845
S2140047C000B8447800C5B40F002154150298E80CD0
S2140047D00698D00706980C0E0698860B0698C40A0C
S2140047E00698120500F8B110076001D80A7108B8DB
S2140047F07F78020C7E780698D00701F8911010D8C2
S214004800367100C00C0F0021041000C590500840FF
S2140048105411A0255412E82554151159112D067669
S2140048200122212D012DDC7518B875788CB84478D6
S21400483001B802A800F8B110076810D8307100C09F
S2140048404810084000C300000840311460242824A3
S21400485044113411076101D9FA7144122810076215
S21400486028100762281007622810E8700298AA0B22
S2140048700698FE0800C024000840207800F888BA91
S214004880727A811204DAFC7200A088BA527A00A00A
S21400489018700698D60810D906710CDB087200B896
S2140048A0103C067201B8076A00BB00C1100F002159
S2140048B000C4B4500840141120391272417B007CA9
S2140048C0B82400C200000101281400A006987E0645
S2140048D000C2040F0021241240DA0672617B007CBD
S2140048E002988A06B11001D8047200A000C0287091
S2140048F008400411108800C1001800401810442019
S21400490004111088A820041110884CBA757A181063
S2140049103DB11088F4B8427844207278D820737875
S214004920E82073784FB200C4FFFF8080413A4FAA58
S21400493001BC01644113076300C06C70084003B9F2
S21400494018100110011001B9181001100110011003
S214004950011098200411076101B80160003A047143
S214004960044904D9047241520760003A04710849A8
S21400497008D9047231520460003B0E720063006472
S214004980314241424FAAB2704FAA44B801685378E8
S214004990F8B853784020527800913DA9009100C0A5
S2140049A01470084018100091582018100091BC2070
S2140049B0181000A04024066400C0FFFF0000013C61
S2140049C01DB002200158402806751EAC01EC00A060
S2140049D0009000C6BC0F0021008801B0076800C325
S2140049E0680F00213414036C41500F3041500813F7
S2140049F00F3003640F340111C04806984C0806981F
S214004A008A0603DD0C7214BA102328130298EA08EB
S214004A1009DD06720298EA08411303DF067202985F
S214004A20160C00DD06720698B40C53B080BB006B03
S214004A3030380A7109DD06710298D80C00A000C053
S214004A40680F0021041003600F3000A01088B11119
S214004A50076980D90A7100C18000084008110091DA
S214004A6000A0B111076940D906720298D20800C1A9
S214004A70700F0021141200BC01DC20710698D608C5
S214004A804034087101B806980609F0DA0C720CDB9F
S214004A90087102B80698060948BC00C380000840A2
S214004AA0FFB801200421141551450871014558131B
S214004AB0082400C138300840141100C500600840C2
S214004AC054153035016D5141014118130142281328
S214004AD0481300B82A7000C46000084000C06C0F7D
S214004AE0002144140410014400A000C06C0F0021F3
S214004AF000B906987E06181006988A0600A000C11F
S214004B00700F0021141203682150F0300152281152
S214004B1000A000C020300E40041104101050F472A3
S214004B2000A000C028400E400413315107610C312C
S214004B3007691153381000A00698D80A00C0F80F6D
S214004B40002104112EA9217A227A00C0940F002198
S214004B501DB118100698EA090111FF300769FF31E8
S214004B6051B30DBC415C413B115900290475084BFB
S214004B7051ABA4BB00C040300E40041103310149C4
S214004B802872B112076207623020041121510F31DA
S214004B9018726E7B6F7BF02004114CBA7C7A18106A
S214004BA014200411607A1810B11002D81071707BAE
S214004BB030B8627860780DB001D8FC7102980A0BA4
S214004BC00698D80A00C0FC0F002104112EA9F82070
S214004BD0041106982209217A237A0698EA0900C069
S214004BE0840F00211DB1181000A0511400C0B80F8A
S214004BF000210410012C0A7500B826A80698B407F0
S214004C0000C0800F00211DB1181028B000C1F0FFB1
S214004C10FFFF11380EB9114028A880B800C14430F3
S214004C20084008116FB8076826A8217A050C2110DD
S214004C302020267800C063EF000026A8050C20EC94
S214004C40247A20EC217A184826A828B00AB90151FF
S214004C500F31115028A8050C207A20EC0F0C98B8BC
S214004C6046784178B11020D8467100C04C300840D4
S214004C707DB918100D0E0D0E00C0703008400411DE
S214004C8030311A7100C07830084025782478960CA8
S214004C9000C07030084004113031EA7200C04C3059
S214004CA0084000C106000000181000B91810069849
S214004CB0120900C27C0F002124100151FF3111504F
S214004CC0081200A00698D80A00B826A800C0880FC8
S214004CD000211DB1181000A030B840780DB101D9E0
S214004CE0FC72427800C074300E4004114CBA407A10
S214004CF01810EC2004115C7A1810A4BB707B4E7B55
S214004D004F7B00C20430084000A008B86E780EB88A
S214004D104EB110D910723EA8140C00C00F0000004F
S214004D203EA8147044A8140C00C00100000000C186
S214004D30B0300E40081100C077801F003DB201421F
S214004D403DAA00C1E80F0021141054A8140C00C09E
S214004D5077E01F0001423DAA51B801687D7808B887
S214004D607E7806987E060698E40606988A0651140B
S214004D700698B407F4B845780A0C00C0900F0021D6
S214004D801DB1181000A051B801685D7800B844A89D
S214004D903EA800C1B0300E40081110B807683DB1FB
S214004DA001393DA908B86F7800A001F8541000DC5E
S214004DB0127101140698B40718B8707800B84178D4
S214004DC000F80298C60B00C57C0F0021541551143C
S214004DD0FF3507644113FF3407633112FF33076260
S214004DE0FF323110212B0158012A0698120901586A
S214004DF05128047501584128187551B00CD8067111
S214004E00215806703110115901290675FF0FB87028
S214004E1018B8727800F800C3780F0021341300C465
S214004E20E0100840441201B80768013A2C710824C3
S214004E302814084B811040D80A7200C45810084045
S214004E40237C00C4700F00214414F0345E7200C44A
S214004E5064000840257C547004DBDA720DDDD471E2
S214004E60A0244412FF32C222CA76811040D814729F
S214004E7000C1401008401410F821141101581128E0
S214004E802A7100C178100840081107600F3091128F
S214004E903032214000C200600840241210DA04714B
S214004EA040480811076207622811308800B8069843
S214004EB06208009300C0780F002100B9181000A007
S214004EC0EBBA00C0780F00210411113A10D9067110
S214004ED018B97479281000A006980C0E115106987F
S214004EE0220901B80298620864BC066C415C512C29
S214004EF00698B40750880698A0030095B110076876
S214004F0020D80C7108B8657818B8717800F808B819
S214004F106C7820B85A7859785B7800C1EC0F00217D
S214004F20141054A84EB010D806710298800D4DB1DA
S214004F3000C09FFFFFFF113840B102D914726048CD
S214004F4000C1040000401112104A04BB41540C700A
S214004F50204802B903BA02BB02BC4DA840A9F8B863
S214004F607078190C3EB141413EA9F4B97379737853
S214004F70717800C1E40F002100C400410840287089
S214004F8000C20000010044AA230C00C200000B006F
S214004F9044AA00C1E40F002100C22000004000C463
S214004FA01841084004BB00C0C83F00001411113867
S214004FB021400814050C1140081404240F0C2FABD4
S214004FC0050CB11008D810711CB879787B7820B819
S214004FD079787B78607CF424411351140698B407E2
S214004FE0727B53B80168050C687840EC00C08C0FE3
S214004FF000211DB1181000F800C0686008400411B8
S2140050000761076180D9047240EC00A0015053A8E4
S2140050100698F80D4EB010D80A7200C4F840084042
S214005020087000C41041084041130C23527C407B9A
S21400503001502FA8050CFC23341200C1FF3FC0E02E
S214005040113A28130A0C00C00000010008140632AA
S2140050502813050C0150081408B86D7800A00878CD
S214005060097804112141181000A000B900C09C1056
S214005070084018101C200AB9181000A0115910D9A1
S21400508006710760076008D90471076004D90471C7
S214005090036002D90471016001D90471006000A0A8
S2140050A010880411023006710761076100C0FFFF17
S2140050B000001138009100A00028012803280018DD
S2140050C0002A012A0A18292A0118052A022900009E
S2140050D0F01921B4478FA4BFA14F63FDEED6141D6F
S2140050E0636032E0375EA488534E6DFB6435BFF7CD
S2140050F053A1811F582CD0A54540FC34F327429875
S2140051009F3EE22E0ECFFFBF1E45CA8C68234A4F35
S21400511016531EC44CBAAD9D324B6808CF7BC04CAC
S2140051200C0053696C69636F6E204C6162730000FB
S2140051300500021500292A0002000A1802000000D5
S2140051400500021200012A00030000000000000013
S2140051500500021000002A000200001801000000EE
S2140051601300020D0016531EC44CBAAD9D324B6898
S21400517008CF7BC04C0000000800000000000000C4
S214005180000000001300020B009F3EE22E0ECFFF31
S214005190BF1E45CA8C68234A4F0000000C02000060
S2140051A00000000013000C090053A1811F582CD0EA
S2140051B0A54540FC34F32742980000000801000093
S2140051C0000000001300080700636032E0375EA4AA
S2140051D088534E6DFB6435BFF70000001000F019D1
S2140051E021B4478FA4BFA14F63FDEED6141D000067
S2140051F020000400181500200500200300052A00E2
S2140052000200011800000108FFFF00000052000025
S21400521002000108FFFF0000F85100000900000826
S214005220FFFF0001F05100000A000708FFFF00031F
S2140052300200000000000108FFFF0000DC51000033
S21400524002000108FFFF0000C451000001800208B0
S214005250FFFF0007BC51000002000108FFFF00002E
S214005260A451000002800608FFFF00079C510000C2
S21400527002000108FFFF00008451000003800108BF
S214005280FFFF00007851000002000108FFFF000049
S2140052906051000004800108FFFF00005C51000020
S2140052A000000108FFFF000058510000020001083E
S2140052B0FFFF00005051000004000108FFFF00003F
S2140052C04851000002000108FFFF000040510000A6
S2140052D005000108FFFF00003C5100000000010827
S2140052E0FFFF00003851000002000108FFFF000029
S2140052F03051000007000108FFFF000020510000A9
S2140053000300070009000000002801280328FFFF0B
S2140053100018002A012A0000F01921B4478FA4BF04
S214005320A14F63FDEED6141DD1A0835000AAD387EB
S214005330174859A75DE904E6915276BB260000801F
S21400534000100000A50000009A9396D7BD6AD9B554
S2140053501646D281FEF046DC636032E0375EA488F3
S214005360534E6DFB6435BFF753A1811F582CD0A553
S2140053704540FC34F32742989F3EE22E0ECFFFBFF7
S2140053801E45CA8C68234A4F16531EC44CBAAD9DA0
S214005390324B6808CF7BC04C02000000050002229A
S2140053A000012A00030000000000000005000220A3
S2140053B000002A0002000018001501008D150020CC
S2140053C0001401008E1500200213020000020020C7
S2140053D00A1200000000000013000A1A0016531EEE
S2140053E0C44CBAAD9D324B6808CF7BC04C00000061
S2140053F0001101008F1500200010010090150020FC
S214005400020F0200020200200A0E00000000000048
S21400541013000A15009F3EE22E0ECFFFBF1E45CAA0
S2140054208C68234A4F000000000D010091150020F3
S214005430000C010092150020020B0200040200205E
S2140054400A0A00000000000013000A100053A181A1
S2140054501F582CD0A54540FC34F327429800000086
S2140054600009010093150020000801009415002093
S21400547002070200060200200A06000000000000E4
S21400548013000A0B00636032E0375EA488534E6D4B
S214005490FB6435BFF70000000005010095150020ED
S2140054A00004010096150020000301009715002057
S2140054B002020200080200200A01000000000000AC
S2140054C013000A0500915276BB26000080001000EB
S2140054D000A5000000000000020002000A020020F2
S2140054E01300020300D1A0835000AAD3871748599F
S2140054F0A75DE904E60000001000F01921B4478F0C
S214005500A4BFA14F63FDEED6141D000000000108E5
S214005510FFFF0000F854000002000108FFFF000033
S214005520E054000001800108FFFF0001D85400008D
S21400553002000108FFFF0000C054000002800308BC
S214005540FFFF0007B854000003800108FFFF0001BA
S214005550B054000003000000FFFF0001A854000044
S21400556003000000FFFF0001A0540000030000003D
S214005570FFFF00019854000002000108FFFF000032
S2140055808054000004800308FFFF000778540000E2
S21400559003800108FFFF00017054000003000000B4
S2140055A0FFFF00016854000003000000FFFF000139
S2140055B06054000002000108FFFF0000485400008D
S2140055C005800308FFFF0007405400000380010821
S2140055D0FFFF00013854000003000000FFFF000139
S2140055E03054000003000000FFFF000128540000B4
S2140055F002000108FFFF00001054000006800308A8
S214005600FFFF00070854000003800108FFFF0001A9
S2140056100054000003000000FFFF0001F8530000E4
S21400562003000000FFFF0001F05300000200010825
S214005630FFFF0000D853000007800308FFFF0007A5
S214005640D053000003800108FFFF0001C85300008C
S21400565003000000FFFF0001C0530000030000002D
S214005660FFFF0001B853000000000108FFFF000024
S214005670B453000002000108FFFF0000AC53000016
S21400568005000108FFFF0000A45300000200010807
S214005690FFFF00009C53000006000108FFFF00000B
S2140056A098530000030005000600070008000900E4
S2140056B00B000C000D000E0010001100120013006D
S2140056C015001600170018001A001B001C001D000D
S2140056D004520000150000000B000000B850000047
S2140056E005000000D050000003000000005300003A
S2140056F0F00D020000000000E00E020000000000B6
S214005700FFFFFFFF0C55000022000000070000000E
S21400571008530000080000001853000016000000A0
S214005720A4560000E10E020000000000E20E020097
S21400573000000000FFFFFFFF010000000000000067
S2140057400000000000000000000000000000000054
S214005750020000000000000000000000030000003F
S2140057600000000000000000000000000300000031
S2140057700100000000000000020000000100000020
S214005780020000000300000013B779FAC925DDB750
S214005790ADF3CFE0F1B614B8000100000000000041
S2140057A000000000080000000002040200000000E4
S2140057B000000000000000000000000000000000E4
S2140057C0000000000100020015005400A90053016B
S2140057D0A7024F059F0A000013001D0012001000CC
S2140057E01500000067800000C3800000CF80000026
S2140057F0000103FF04FF020000000000000000009C
S2140058003C0094003C009600F4010000FA00000002
S21400581096000000640000004B000000320000000C
S2140058201E00000014000000000000000000000041
S2140058300000000000280000000000000200000039
S214005840000000000028000000000000100000001B
S2140058506C888391AAF5A53860370BDB5A6083BE47
S2140058603F49F6D4A3C55F3874C9B3E3D2103F509E
S2140058704AFF607BEB40B7995899B8A6CD3C1ABD55
S214005880E69D350E480103CCDBFDF4AC1191F4EF38
S214005890B9A5F9E9A7832C5E2CBE97F2D203B020F7
S2140058A08BD28915D08E1C742430ED8FC24563765A
S2140058B05C15525ABF9A32636DEB2A65499C80DCB0
S2140058C000000000000000000100000000000000D2
S2140058D001000000000000000000000001000000C1
S2140058E000000000010000000200000002000000AE
S2140058F0030000000000000002000000000000009E
S2140059000000000000000000000000000000000092
S214005910020000000200000001000000000000007D
S214005920020000000000000000000000010000006F
S214005930000000000100000000000000050000005C
S214005940010000000000000005000000020000004A
S214005950020000000300000000000000020000003B
S2140059600000000000000000000000000000000032
S214005970000000000200000005000000010000001A
S214005980000000000500000001000000000000000C
S21400599004000000010000000800000001000000F4
S2140059A010000000010000000001000001000000DF
S2140059B0000800001D000000000200001D0000009E
S2140059C0000400001D000000000001001D00000093
S2140059D00000000000000000C800FCFE1F811D0B38
S2140059E06ABDFBFFB0807F054A32FFFF7480160356
S2140059F0EA4B00005180B50127B200003F80490104
S214005A0084C500003280D100F0C3000028807400F6
S214005A1034B4000028004B00EAB500008C00FCFE01
S214005A20FFFF0000000000001F8158114C42FAFFE3
S214005A30A180CA050197FFFF5D806A024CA40000A2
S214005A4041805701A7CC00003480E000BECA0000A9
S214005A502A808C00CABC000029005200B5B900009C
S214005A60C800FCFE1F01C80B7D30FBFFAB001C0509
S214005A70035BFFFF7300FD02DC5500005300D501F9
S214005A80BEAF00003F001901E4C800003300AC00C0
S214005A9090C700002C006C00B1BC0000270043003B
S214005AA046AF00009600FCFEFFFF0000000000006E
S214005AB01F016D0FA182FAFF7E00C103791F00004F
S214005AC05500E401F4B1000041003701C7C90000E9
S214005AD03300C000CAC700002B006E00F7B90000F4
S214005AE0260038008AA8000083FFBFFFE2FFF1FF10
S214005AF0F9FFFEFF000000000700000002000000A3
S214005B000400000000000000040000000000000088
S214005B100500000000000000000000000142010037
S214005B20A5430100FB420100174301002543010085
S214005B303343010051430100000000000000000054
S214005B402B430100DD430100E54301000000000097
S214005B50ED430100F3430100F9430100000000009B
S214005B60FF430100000000000000000000000000ED
S214005B70414A01000F44010000000000A944010052
S214005B8035450100374501003D4501004945010006
S214005B9046004000290002000008000046480503B1
S214005BA059450000054500000000000006450000BD
S214005BB00000000000000F40190000000200000076
S214005BC0BC0C0020000008400000002175640100A5
S214005BD09F640100976401008F640100C3640100A4
S214005BE07964010081640100A964010003040408CB
S214005BF00800000000000102020303030300000087
S214005C0000000000000000000000270080841E0046
S214005C10809C2B8F085C0000010000000000000044
S214005C200000000000000000000000E1FFFFFFFF92
S214005C30FFFFFFFFFFFFFFFF000000000000000067
S214005C400000000001000000FFFFFFFF4B60D227AE
S214005C503E3CCE3BF6B053CCB0061D65BC8698766F
S214005C6055BDEBB3E7933AAAD835C65A96C298D82C
S214005C704539A1F4A033EB2D817D0377F240A46370
S214005C80E5E6BCF847422CE1F2D1176BF551BF3779
S214005C906840B6CBCE5E316B5733CE2B169E0F7C4C
S214005CA04AEBE78E9B7F1AFEE242E34F512563FCE8
S214005CB0C2CAB9F3849E17A7ADFAE6BCFFFFFFFF82
S214005CC0FFFFFFFF00000000FFFFFFFFAE03000026
S214005CD0000000003333330000000000333333008D
S214005CE0000000003333330000000000333333007D
S214005CF00000000033333300F00F0101D05C0000D9
S214005D00F40F010100000000F80F010100C00300BD
S214005D10FC0F01010BC0030004000100018101001B
S214005D20080001000001000018000100000000004B
S214005D301C00010001000000280001000000000017
S214005D402C000100000000003000010000000000F0
S214005D50340001000000000040000100A007000021
S214005D604800010000000000540001000000000090
S214005D705800010000000000A000010001480000DB
S214005D80A4000100FF4C0000A8000100014900002B
S214005D90AC000100FF4D00000020010008070000D5
S214005DA010200100FFFFFF00182001000060DA004D
S214005DB0083001003FAC000030300100AA2A100075
S214005DC034300100010000004030010000000000F7
S214005DD0A04001007A27000FF440010020100000C8
S214005DE0344101008008000038410100E6870000C9
S214005DF0404101004800880044410100C0E65311BC
S214005E00146001001000000018600100000000840B
S214005E101C6001001FC0010020600100C8200000B7
S214005E20246001000000000028600100000000035C
S214005E302C6001000000000030600100C804FF0074
S214005E4034600100A2080000386001000A0000016A
S214005E503C6001009200040040600100D6BE898EBE
S214005E604460010000000000486001008C00D40A75
S214005E704C6001000000000050600100D1032A00C1
S214005E80546001000000000058600100000000009F
S214005E905C600100040A13226060010032414A4F30
S214005EA0646001000000000014700100F870020039
S214005EB018700100000300001C7001006000D08113
S214005EC02870010000008001487001003C3D000081
S214005ED04C700100BC1900007070010005810000C4
S214005EE07470010013010000787001000023550053
S214005EF0FFFFFFFFF00F0101D05C0000F40F01016F
S214005F0000000000FC0F01010BC003000830010078
S214005F103FAC0000F440010020100000FFFFFFFF30
S214005F20F00F0101F05C0000F40F01010008000012
S214005F30FC0F010108C003000830010037AC000068
S214005F40FFFFFFFFF00F0101E85C0000FC0F0101FE
S214005F5009C003000830010037AC0000F44001001F
S214005F6020000000FFFFFFFFF00F0101D85C0000DB
S214005F70F440010020000000FFFFFFFFF00F0101CA
S214005F80E05C0000FC0F010109C0030008300100BE
S214005F9037AC0000FFFFFFFF00000000010000001C
S214005FA008070F000A00C80020000000A00000003C
S214005FB00000000000000000A00055010A200706AF
S214005FC0020A0407000000000100000005000000AF
S214005FD000000000000000000000000000000000BC
S214005FE00800020004000200C409000001000100CD
S214005FF0636032E0375EA488534E6DFB6435BFF7AE
S21400600053A1811F582CD0A54540FC34F327429855
S214006010B814B6F1E0CFF3ADB7DD25C9FA79B713FA
S214006020DFF8F01308607047DFF8EC23537803803E
S21400603090780880704710B5DFF8DC331C7804438E
S2140060401C70012804BF59709A7010BD38B50446FC
S2140060500D462278611C284600F00AFA207828614E
S21400606031BD2DE9F04385B081460E4617461C46E5
S21400607000F00FFAFF1EDFF8A483DFF8A45338D031
S2140060807F1E53D0FF1F00F01081FC3F00F0AA8057
S2140060907F1E00F005817F1E00F0DE80F83F49D0AD
S2140060A0BF1E5AD0FF1E73D07F1E00F0F180FB3F4C
S2140060B014D040F2FF403F1A00F035817F1E00F0FA
S2140060C00D817F1E00F012817F1E00F01B817F1E57
S2140060D000F01E81FF1E00F035813EE1CD480568C8
S2140060E02800FAD0234640F2023231464846A847F6
S2140060F033E10C22002101A800F0F1FA01A800F01B
S214006100F9FA0220A88000230420E880002202205A
S2140061102881294640F6C41068810298E86001206C
S2140061202882C04800F023F9122014E12068A880D5
S214006130BD480DE12068C17F00F01EF90600D7D0EB
S2140061402068C07D102806D06068A880002396F8D6
S2140061503E0000F014F9304617E02068C17F00F0DA
S2140061600BF9070013D007F12006306980280ED1FE
S2140061706068A8800023B07F00F001F93068C0B2E4
S21400618000F0CCFB00F06EFC384600F0DFFDE4E0EB
S2140061902068C07F00F020FF0600F8D09E480078F8
S2140061A001281EBF206890F83D10FF290AD12068FC
S2140061B000F0F8F800F0EDF818BF002000F009F93C
S2140061C09A4861E000F0EEF800F0E3F818BF00200F
S2140061D000F0FFF8206890F83D00A873944800F09F
S2140061E0C6F837E0934800780028D0D16078FF28BA
S2140061F013D1A07828710622E11C681D00F038F93A
S214006200607AE8720023A07A287300228A48286001
S2140062102946012000900D209DE020782871062256
S21400622060786871E11CA81D00F022F9607A287376
S21400623004F10C03A07A6873E07AA8730B300102AD
S21400624041EA102040F4403040F0A00000F08FF803
S2140062502946AA7B0F207EE000F08DF800287CD02F
S21400626090F83E00287100236088A5F805000022FB
S214006270A088A5F807002946E088A5F80900207A36
S214006280E8726089A8816D4800F071F80E2062E01F
S21400629000F071F8002860D000F063F8684857E016
S2140062A0684800F08CF8042055E000F064F806001A
S2140062B053D0207800F032FB00281CBFC07D102889
S2140062C04BD096F83E002871002360786871002253
S2140062D0A078A87129465C4828602FE000F04BF8AB
S2140062E000283AD000F03DF8584831E000F06EF84B
S2140062F02871002356482860002201200090294675
S214006300052028E000F062F800F052F8514804E05A
S21400631000F05CF800F04CF84F4828602946012051
S2140063200090092017E000F051F8287100236068FB
S214006330A5F805000022494828602946012000905B
S214006340072008E000F042F8287160686871444849
S21400635000F035F8062000F036FF002005B0BDE856
S214006360F08390F83E002871607868717047286066
S2140063700120009070472178802000F0D1BDA871E0
S214006380C5F800800120009000222946072000F072
S2140063901ABF2068C07DA8722946206890F82E0093
S2140063A00128704700F111010622281D00F060B890
S2140063B0287100236068C5F8050000227047286031
S2140063C0002301200090002229467047207800F024
S2140063D028BEE872002396F83E0028730022206844
S2140063E090F83C0068737047032200210A4800F0CA
S2140063F076B938B5044640F22D152846A047194907
S21400640008602846A047184908602846A04717494C
S214006410086031BD0804002004040020A003080121
S214006420D4030020A00E0100A0020105A00A080067
S214006430A00B080570150020A0090302A00A080298
S214006440A0020804A0000301A0030803A0020F0393
S214006450A0010F01A0050F00A0050F02A0030F0466
S214006460A0020F09C8030020CC030020D0030020A0
S21400647010B5044600F0BCFE204610BD002104E026
S214006480827A8918427A0068891A0028F8D1084664
S214006490704770B540F20160121A82B01C46694E11
S2140064A0694D1CD0521E20D0521E2ED0521E4ED0E9
S2140064B0521E40D0521E5DD0521E6FD0521E75D056
S2140064C0F93A7CD0521E00F08580521E00F088807B
S2140064D0521E00F09B80521E00F0A280B0E000F03A
S2140064E0F1F800F0DEF85948A1E000F0EBF828716A
S2140064F004F108036068C5F80500A06900F0C0F85C
S214006500534908432860294686E000F0DBF82871E6
S21400651004F1080300F0C6F82079E871A069287233
S214006520287A2A7A401D010241EA1020494900F0E3
S214006530A1F8092082E000F0C5F800F0C6F8A872BD
S214006540A87AC01D010241EA102043494FE000F03E
S214006550B9F82871231D00F0A5F86069E871E8799C
S214006560EA79001D010241EA10203C4900F082F859
S214006570082063E000F0A6F800F093F8A088A5F8DD
S2140065800700A068FFF77AFF00F07AF8344908435E
S21400659028602946022000900A202FE000F092F89A
S2140065A028716068A5F805002E6041E000F08AF8C2
S2140065B028712E6040F20310A5F8050038E000F0C0
S2140065C081F800F082F800F063F840F4202040F0F4
S2140065D0A0000DE000F076F800F068F821481AE018
S2140065E000F070F800F071F800F052F81E49084309
S2140065F0AA7A28602946022000900B20A36800F0A3
S214006600E2FD04F1080000F093FF19E000F05AF8EC
S21400661000F04CF815482860012000900A200DE094
S21400662000F050F828716068A5F80500104828604A
S21400663001200090002300222946072000F0C3FD19
S214006640002076BDA0030906D4030020A00309009D
S214006650A0000901A0000902A0000904A000090387
S214006660A0000905A0060A01A0000A02A0060A0367
S214006670A0030A04084328602946012000907047BA
S2140066806872687A6A7A801D010241EA10207047B3
S214006690A872A87AC01D010201F47F4141EA1020C9
S2140066A0704728716088A5F8050070472871002398
S2140066B06088A5F8050000222079E8712946E08860
S2140066C028817047207800F0ACBC28716088A5F857
S2140066D005002079E871E0882881A068CEE610B52C
S2140066E0044610460A460146204601F03DF920467B
S2140066F010BD002A10B540F628010A68A2F500630E
S214006700B3F5605F09D21368214CA34205D19268A5
S214006710426001230968896901E000230021816045
S214006720036010BD40F628000068A0F50061B1F5D2
S214006730605F3CBFC069004709E040F6280000687B
S214006740A0F50061B1F5605F3CBF006A00474FF4FA
S214006750817070470F480121816040F202224FF09D
S21400676000510A804FF20F024A80016821F4E0616E
S21400677041F480610160BFF34F8F0748074A016804
S21400678001F4E06111430160BFF34F8F00BFFDE7E6
S21400679007B0CD5E00500E400CED00E00400FA0598
S2140067A040F628021268A2F50063B3F5605F3CBFAE
S2140067B0926A104740F20220704738B540F6280427
S2140067C02468A4F50065B5F5605F02D340F20220A8
S2140067D032BDE46AA04732BD40F628010968A1F53B
S2140067E00062B2F5605F3CBF496A08470020704708
S2140067F070B505460E46022001F01CF9040026D0AE
S214006800502101F043F9E6750622294604F11100ED
S21400681000F0EEFC04F13C004FF0FF310170FF2168
S214006820417000206149401C0A68C0B203E0D37F73
S2140068309842F8D09268002AF9D1E07740F6FF70C7
S21400684020840868A0600C60204600F0B1F820465E
S21400685070BD00B10184704710B504003AD094F9B9
S21400686004000128A4BF401E207194F904000128EA
S21400687009D1207B800706D5207C01001EBF012899
S214006880204601F05DFC94F90400012822DA204637
S21400689001F031FC04F1240000F04AFE4349086888
S2140068A058B1844203D1A068086006E008468168B3
S2140068B019B1A142FAD1A168816000220FF2190134
S2140068C0204601F091FF2046BDE81040002201213D
S2140068D001F084BF10BD000010B5012A0C4602D09E
S2140068E0022A07D004E000220221204601F076FFAB
S2140068F0002010BD204601F0A6FF2146022001F030
S214006900AAF8012010BD2949096800E08968002915
S2140069101CBF0A8C8242F9D1084670472349096891
S21400692000E0896800291CBFCA7F8242F9D1084668
S214006930704780B5FFF7F2FF18B1C17D102908BF78
S214006940002002BD70B50446184806680D4600E0F3
S214006950B66856B1F07DA842FAD10622214606F165
S214006960110001F0D3FF0028F2D1304670BD38B5D3
S21400697004460E48056800E0AD685DB1287C042832
S214006980FAD13CB10322214605F1140001F0BEFF06
S2140069900028F1D1284632BD10B904480068704777
S2140069A08068704701490020086070472005002075
S2140069B010B10179491C017170470246002350212D
S2140069C0022001F005B8022001F03FB880B51B494F
S2140069D00020086001F0E5FF01F0EAFFFFF7E2FFA4
S2140069E001F06CF800F040FC01F0EFFF02F08BF9CC
S2140069F003F06AF803F0E0F9BDE8014001F079BB66
S214006A0038B504460D46002301220021002000F080
S214006A10DFFF2046FFF7D1FF284602F065F9002089
S214006A2032BD1CB5044606220549684600F0F0FB58
S214006A3020466946062200F0DBFB13BD8C050020CD
S214006A402008002010B5044603E001F02BFF01F0FB
S214006A504EFB01F0D6FA00282046F6D1BDE81040DD
S214006A6001F020BF002818BF02F063BE4FF4C070CC
S214006A70704780B5FFF752FF20B1008CBDE802409A
S214006A8001F0B8BD4FF4C07002BD01F0A3BD80B5E3
S214006A900146012001F0DDFD002002BD002104E0DA
S214006AA0827A8918427A0068891A0028F8D108463E
S214006AB0704780B500F0E8F8012002BDDFF8B804A2
S214006AC090F90000012103F0C5BA2DE9F04786B021
S214006AD080460E4692461D468DF804800296ADF816
S214006AE00CA004950E9CDFF89404DFF894948DF8BF
S214006AF01440076806E001AADFF88814384603F059
S214006B0007FB3F68A7B197F83C0000F00A000A2888
S214006B10F7D1D7F804C0BCF1000FECD000942B4698
S214006B20524631464046E047D9F800000028E8D0F3
S214006B3006B0BDE8F087416A00291CBF243000F08B
S214006B40F7BC704738B50446E06998B300F010F912
S214006B5080B33C220921002000F0E1FB009048B3FE
S214006B600020DFF8245401E00A74401C0099009AC3
S214006B70497A927A521A90420BD2009B194408B96D
S214006B805E22F1E7521E904201440CBF21222A7871
S214006B90EAE76946204600F00AF9009810B1684610
S214006BA000F0C6FC2878401C2870C0B23A28A4BF63
S214006BB03020287031BDDFF8D40300784FF48071A0
S214006BC0401CC0B2FF2804BF401CC0B2DFF8AC2394
S214006BD003E092F83E30834203D01268002AF8D1D0
S214006BE07047491EECD1FF20704738B5FFF7E3FF2A
S214006BF0FF2801D1002032BD442003F0B8FA04007B
S214006C0009D0442100F042FF04F13E05FFF7D3FF10
S214006C10287001206870204632BD80B50021DFF85C
S214006C20700303F008FADFF85013087000F01CF940
S214006C30FFF7DBFFC0B1011D00220A604A60062391
S214006C40DFF850238A60DFF85023CA6000F13C0268
S214006C5013701023CB621F23937000230B62012155
S214006C60D170BDE8024000E001BDDFF810130A68ED
S214006C700260086010F83C1F41F001010170807846
S214006C80DFF808130870704710B5DFF8F0020468E4
S214006C902DE0204600F084F994F83C00C00744BF7D
S214006CA0204600F0DCF994F83C0000F0FE00810776
S214006CB084F83C001AD540070BD5216908001CBF94
S214006CC020468847606A20B1E16808001CBF20465D
S214006CD0884794F83C00000708D5A068010005D056
S214006CE0804718B10146204600F0D9F92468002CE8
S214006CF0CFD1002010BD38B50446251D0020E86120
S214006D00A86184F83C0068602860A860686A28B1BA
S214006D1004F1280000F00CFC00206862286A28B104
S214006D2004F1240000F004FC00202862934809E0E7
S214006D308169A14204BF00218161C169A14204BFEB
S214006D400021C16100680028F2D131BD10B50446AB
S214006D50FFF7D1FF894800E00846016819B1A14253
S214006D60FAD1216801602046BDE8104003F01BBA46
S214006D7008B90120704700F13C010A7802F00603CA
S214006D80062B11D150F80C3F73B1C97801B9012117
S214006D908069002201E00068521C0028FBD1D2B2B4
S214006DA08A428041C00F704702F0020070472DE90A
S214006DB0F04704460D46E669FEB196F83C10301DD5
S214006DC001F0060106290FD1816869B12868FFF72E
S214006DD065FEA16B4018A06306F12400296800F048
S214006DE076FC00F095F80FE00068010005D000F092
S214006DF033F902E0304600F0E5FA284600F054FC8D
S214006E00060003D100F030F800202BE0707AB17A4B
S214006E10DFF86C9100F076F809E0A06B5044A063B0
S214006E20A7EB0A07707A50447072D044BFB2002FA6
S214006E30E0D0FD2FACBF4FF0FC0ABA4642465FFAE0
S214006E408AF1204600F03DF9D9F800000028E4D089
S214006E503146284600F08BFC0020C9F8000000F000
S214006E6003F80120BDE8F0874C4800F0F5B82DE99E
S214006E70F8435FEA00090D4606D1284600F058FBA5
S214006E8000202860BDE8F28309F1040699F83C006A
S214006E9000F00600062810D1B06870B12868FFF729
S214006EA0FDFD316B4018306309F12400296800F0BD
S214006EB00EFC00F02DF80020E4E73068010005D055
S214006EC000F0CAF802E0304600F07CFA284600F0EF
S214006ED0EBFB060002D1FFF7C7FFECE7707AB17A4A
S214006EE000F010F807E04246E1B2484600F0E9F844
S214006EF03F1BA044BFB2002FE5D0FD2FACBFFC2443
S214006F003C46F0E70F1A3044BFB200F11008704755
S214006F10002028600121184890F9000003F09AB874
S214006F20164A12683AB1136B834204BF136A8B4247
S214006F30F7D11046704700207047104909680029AD
S214006F401CBF91F83E208242F8D10846704710B523
S214006F50044694F83C00626920EA0101100002D061
S214006F602046904701E084F83C1094F83C0040F03E
S214006F70010084F83C0010BD78150020A80500200C
S214006F80AC050020020001000D020020791500204B
S214006F90B36A0000376B0000456B0000CB6A000048
S214006FA038B5044604F13C056878C00713D5287840
S214006FB0400610D52046FFF7DBFE60B1287800F0CB
S214006FC0BF0028704021687800F0FE0068702046F8
S214006FD0BDE83440BBE731BD70B50646314680207B
S214006FE0FFF79EFF04001BD1FFF7FFFD040001D151
S214006FF0002070BD04F10C05002028606860A860C1
S214007000022084F83C001F20FFF797FF28616E617E
S214007010802068620020A8612046FFF726FE2046F2
S21400702070BDFF2800D1704780B501468020FFF76D
S21400703077FF10B190F83E0002BDFF2002BDFF288A
S21400704000D1704780B5FFF778FF10B1006AC0B274
S21400705002BDFF2002BD03285F490860704700F1AB
S2140070601C025169802900D1704710B582B01168A2
S2140070704FF0FF3309B191F93E303C3057498478E0
S2140070800C715269C1F805204B7200230078887293
S214007090002253480860012000900B200EE010B537
S2140070A04E4C82B0A180002390F83E00A0710022D2
S2140070B04C482060214601200090072000F083F80D
S2140070C013BD80B503460846444993F83E304871E0
S2140070D00B71801C030243EA1020434B18430860E0
S2140070E013460120009006204A7900F06CF801BD96
S2140070F010B584B08278C078374C2468ADF8081094
S214007100000640EA024040F4087001900023012087
S2140071100090002201A90620A0471FBDF1B582B04D
S2140071200C46012000F091FC0B2838BF4FF4C171CB
S2140071302AD32E48006800210CE00832566846B173
S214007140167806F0F806BE4204BFD678AE42F4D1F2
S2140071501146806888B181B94268029B0093002A74
S2140071609DF800309DF80350F3D096789DF8027095
S214007170BE42EED103F0F807E0E719B149682046B1
S2140071808847F7BD40F2831102A8FFF7B1FFF7BDAD
S214007190C4E770B5154E044630680D4600E08068BA
S2140071A018B14168A942FAD10BE00C2002F0EEFFBC
S2140071B010B94FF4C17070BD0470456031688160CD
S2140071C03060002070BD10B582B0049C0094024C64
S2140071D02468A04713BD0000BC040020D403002090
S2140071E0A0070B02A0030B00A0000B01C0040020A8
S2140071F062B38B0708D0521E11F8013B00F8013B22
S21400720000F024808B07F6D1830740F0208000BF73
S214007210103A07D330B4B1E83810103AA0E8381066
S214007220F9D230BC530724BFB1E80810A0E8081014
S21400723044BF51F8043B40F8043BD20724BF31F862
S214007240022B20F8022B44BF0B7803707047083AD5
S21400725007D3B1E80810083A40F8043B40F804CBDE
S214007260F7D25307E4E7FEE780B5012000F0FDFB08
S214007270DFF8E416801F086001BD2DE9F0470446DC
S2140072808846914602F091FF8246DFF8CC06DFF88A
S214007290CC560068DFF8C866012C26D131688142DA
S2140072A028DA012000F0C6FB0746504602F081FFB0
S2140072B07FB31021384600F0E9FBB86840F00800BC
S2140072C0B86087F8098009EB0800B87200203860BB
S2140072D07C60B86840084000B8600020012CF86068
S2140072E00DD13068401C306013E0002CD9D12968DD
S2140072F08142D6DB504602F05CFF00200AE01CB953
S2140073002868401C286004E0DFF858060168491C1D
S21400731001603846BDE8F08700220021ADE78B18F3
S214007320462BBCBFC9B2FFF7A8BF0020704738B5D0
S21400733014461D460022C9B2FFF79FFF009040B1D9
S2140073402A46214600F0CDF9A8423CBF684600F028
S214007350EFF8009832BDF8B5044600200D460090C0
S214007360002620E0607A7872A07AB872A068B968C1
S214007370400860F34101B960A068B968800860F30E
S2140073808201B960607AA17A0A1A204400F11001DD
S214007390787A384400F047F9009800B9009706B1AB
S2140073A0376024683E465CB1002200212846FFF77D
S2140073B064FF0700D6D1684600F0BAF80020F2BD98
S2140073C00098F2BD38B5040021D002F0EEFE054666
S2140073D0A068616820F008000129A06008BFDFF8F7
S2140073E0801505D000290CBFDFF87015DFF874157E
S2140073F00A68521E0A60C00721464CBF03200120BF
S21400740000F029FB2846BDE8324002F0D2BE31BD6E
S21400741010B508E0427A837AC9B29C1A8C4205DA23
S214007420C91A006851180028F4D110BD1044084449
S214007430103010BD827AC2F145039942A8BFC2F14E
S21400744045018A188272C8B2704738B50446154698
S214007450A07AC0F145029542A8BFC0F14505EDB23D
S21400746020182A4600F0DFF8A07A2818A0722846CE
S21400747032BD2DE9F0425FEA000918BF00290BD0A3
S2140074800C46607AA17ADBB20F1A9F4206DA591AC6
S21400749024684318002CF4D1002021E0A67A211895
S2140074A0301A1944C51A1031EDB24E4609EB0207E0
S2140074B005E0607AA27A2118151A1031EDB2BE42A4
S2140074C00CD2701987423CBFBD1BEDB22A4630462F
S2140074D0FFF78EFE24687619002CEAD1A6EB090089
S2140074E0BDE8F082F8B50E4604461546002104E0D5
S2140074F0827A8918427A0068891A0028F8D1A94247
S21400750005D24FF0FF30F2BD24683E44ED1B74B147
S2140075106DB1607AA17A0F1AAF4288BF2F46204419
S2140075203A463146103001F0F1F90028ECD0F2BDB1
S21400753038B5044603E00568FFF744FF2560206879
S2140075400028F8D131BD00B9704710B5016821B9DF
S21400755000220260084610BD026003681A68002A0E
S214007560F6D09468C4F34004002CF5D000241C60C8
S214007570EFE738B50446607A884202D3401A607254
S21400758013E0A27AC2F14503C3188B420FDB121A2E
S2140075900D1A2318581903F11001103002F00CFED2
S2140075A000206072A07A2818A072012032BD002048
S2140075B032BD38B504460D46FFF7DBFF08B120465E
S2140075C032BD6068FFF7A8FE28B1046045218172CD
S2140075D0C5F14501417232BDF8B504460D46607AE4
S2140075E0A17A0A1A081A561B8542B6B204DA6068EF
S2140075F0FFF792FE070001D10020F2BD607A20441A
S214007600284400F11001787A384400F00BF8B87A74
S2140076103018B872A07A801BA07220683860276085
S2140076200120F2BD32461030FFF7E2BD70B50C46C1
S214007630002818BF002C07D0617AA27A857AC5F197
S2140076404505561AB54201DA002070BD521A611877
S214007650D2B21031FFF7F9FE2046FFF7B3FE012045
S21400766070BDF8B504460F4626680020354605E08E
S214007670B07A717A381A0F1830463668F9B269B19E
S21400768066B1B07A717AFFB2401A8742F0DA3946AC
S2140076903046FFF7A1FF0028EAD1F2BD08B100216D
S2140076A0016026602846F2BD016821B10A680260C2
S2140076B00020086001E0002202600846704701686A
S2140076C019B10A68026008467CE6016070470268E5
S2140076D012B901607047024610680028FBD111609D
S2140076E070472DE9F8430400894690461CBFB9F15F
S2140076F0000F5FEA080001D1002020E0274600E0E6
S214007700074638680028FBD13D00464605D1617A19
S21400771060680022FFF7B1FD05466DB1F2B249463A
S2140077202846FFF792FE361A8144BD421CBF3D60D4
S2140077302F46F0B20028EAD1A8EB0600C0B2BDE89A
S214007740F28338B505680C4615B9046031BD0546A8
S21400775028680028FBD1206818B1204600F054F8AD
S21400776003E02846FFF762FF00B92C6031BD0268CF
S21400777002B10A60016070470A0001D170471A46DC
S2140077801368002BFBD1036813600160704738B59F
S21400779004460D4604E06D1A01682160FFF712FEEC
S2140077A0E8B250B1206840B1427A817A891A89B22B
S2140077B0EDB28D42EFDAA918417231BD70B50446BC
S2140077C00D46206810B970BD00203060E8B2D0B118
S2140077D02068002817D0002601E006460846016803
S2140077E00029FAD1417A827AEDB2531A9D4202DA22
S2140077F0511B817270BDAA1A8D18FFF7E3FD002E8B
S214007800E2D10020206070BD70B5044643E0A17A46
S214007810607AC1F145021518ADB2002D3AD00200CB
S2140078200DD00A1A204400F1100104F1100002F0F5
S214007830C3FCA07A617A401AA072002060722068A9
S21400784040B38168C1F3400121BB417A827AA37AB2
S2140078500844521A00F11001607A92B22E46954200
S2140078602044C8BF16461844FFF7DCFEA07A30183E
S214007870A072AD1B2068417A71184172ADB22068C3
S214007880817A427A891A03D101682160FFF79AFD4E
S214007890002DD4D12468002CB9D170BD2DE9FB474A
S2140078A081B00025019800950028904646D00646EF
S2140078B0A946AA46002422E0B9F1000F0DD101988E
S2140078C09DF8081040680022FFF7D7FC5FEA000921
S2140078D02ED049466846FFF7FAFE707A3044001903
S2140078E000F11001FAB24846FFF7AFFDBA445FFA5E
S2140078F08AFA3C19C245E4B204BFA946AA46707A81
S214007900B17A0A1A94420EDA121B13464245C8BFD1
S2140079104346A8EB0A07BB42CEDA4245AEBF47460F
S214007920081A071BC8E73668002EC3D1009D04E07E
S214007930009810B16846FFF7FBFD284604B0BDE886
S214007940F087074805490068096840EA01200549AC
S214007950096840EA0140704710000020F804002043
S214007960F4040020FC04002062F30F2262F31F429E
S214007970401810F0030308D0C91A1FD3DB0748BF0E
S21400798000F8012D28BF20F8022D130030B414464D
S2140079901546103928BF20E93C00FAD8490728BF09
S2140079A020E90C0048BF40F8042D890028BF20F8C5
S2140079B0022D48BF00F8012D30BC7047C91818BF0B
S2140079C000F8012DCB0728BF00F8012D7047FEE711
S2140079D070B51446C91C4FF6FC721140C91C02EA69
S2140079E00105284901EB00160020274935807480E0
S2140079F0F06004FB05F009688847706015FB04F129
S214007A00318189B2706800F041F8002007E07168A3
S214007A1000FB05F21144F2680A60F160401CA042C7
S214007A20F5DB748070BD184A11605060010115487E
S214007A3002F0FEBB134901EB0011C86820B10268D2
S214007A40CA604A88521E4A8070470E4901EB0010F1
S214007A504088C0B270470B4A02EB0010C2680A604A
S214007A60C1604188491C41807047000105490A5A97
S214007A702AB10A18085A128992FBF0F070470020C3
S214007A807047000010040020EC0400200022FFF7DE
S214007A906FBFFEE70188491C8AB202B90121018046
S214007AA00088704710B50446012000F01AFBDFF886
S214007AB04C0804600020BDE8104012E3DFF83C08E4
S214007AC000210160C1610162C16281624FF6FF71EF
S214007AD00187002181608181016181827047DFF822
S214007AE01C18C2784A6042F2130382889A4200D079
S214007AF0704700B583B082788DF802208088ADF894
S214007B00040001F13800FFF7C5FFADF800006A4633
S214007B100621DFF8EC0700F0AEFE07BD70B505469F
S214007B2086B0DFF8D867A878DFF8D4477060B5F875
S214007B30030010383AD04FF47E71401A36D040F227
S214007B40FB71401A32D040F2FE31401A15D0001FA9
S214007B5027D0001F2BD04FF47F71401A4FD040F62D
S214007B60FD31401A70D00C3820D00A3834D0C01FEF
S214007B7055D01438012852D96BE00A2002F0F7FAE3
S214007B80002813D0B5F8071041800246A979017085
S214007B90697A0171A98901816989C1804FF483716D
S214007BA016E0B5F80900B060E888B08175E00622F6
S214007BB0A91D06F13000FFF71BFB062002F0D7FADE
S214007BC006006AD00622A91DFFF712FB32460821DE
S214007BD0204600F003FE60E008208DF80E00082224
S214007BE0A91D0DF10F00FFF703FB06F13800FFF7A4
S214007BF051FFADF80C0003AA40F607014AE0687989
S214007C008DF80900E888FEF77EFE00B1C07F8DF88B
S214007C10080002AA287A8DF80A000B213AE0687953
S214007C20010014BF40F400700020009042F21F01D3
S214007C30B5F8030088420CBFE8880020ADF80400C1
S214007C406A4640F2023125E0287A3061E888B08240
S214007C5023E068798DF8020040F66D41B5F8030020
S214007C60ADF80400B5F80300401A09D041F2983187
S214007C70401A05D0801F012884BF2A38042804D85B
S214007C8006F13800FFF706FF00E0308FADF8000081
S214007C906A460621204600F0EEFD06B070BD2DE9CE
S214007CA0F04E044682B0A07801284FF0FF0A00F09C
S214007CB08C8002282ED0032876D0052800F0CC80B1
S214007CC0062800F0D780072800F0FB800C2800F07C
S214007CD0DF80122800F0E680132840F005810C2093
S214007CE002F045FA060000F0FF80E078B07086F8F3
S214007CF001A0062220797072611DF01CFFF778FA49
S214007D004FF0FF3030700020F0723046BDE8F64E7F
S214007D1001F0D0B8E6784FF0000B11E000F0E6F87E
S214007D205FFA80F9EDB2B542F8DB0BEB09002044B0
S214007D300BF1010B90F904003870384601F0BAF8E0
S214007D40B3454FDA2B2002F012FA07004AD004EBB4
S214007D500B0087F802A006220079787000250BEB4E
S214007D600600204400797872700002FB0B00204465
S214007D70011DF81CFFF73CFA0BEBC6002044007907
S214007D80F87206EBC60001E000F0B0F85FFA80F982
S214007D90EDB25D45F8DB04EB0900FA7A011D07F148
S214007DA00C00FFF725FABDE7A088FEF7ACFD020041
S214007DB018D0E078002815D102F14800E18801804B
S214007DC0618941802189818089E0E079A17951B972
S214007DD0010018BF012104F10800FEF7B3FD5FEAB9
S214007DE0000A15D180E0014604F10800FEF700FD08
S214007DF05FEA000A78D00AF11E06022030740622D6
S214007E00DFF800150AF11800FFF702FA00203070BC
S214007E100AF11006E07878B9A1885046FEF719FDF9
S214007E20E08930870021608A7087208AB0875046B4
S214007E30BDE8FC4E01F09BBC00203070E0780100ED
S214007E4014BF40F400710021504601F090FC5046EB
S214007E50BDE8F64EFEF700BDB4F80300FEF753FD8E
S214007E60010041D0B4F80D10621D02B0BDE8F04E1E
S214007E7002F095BEB4F80B000090B4F80930B4F8E0
S214007E800720B4F80510B4F8030000F0EFFB2BE071
S214007E90A088FEF738FD010026D0A179BDE8FC4E8B
S214007EA000F094BFE078E379B4F80520010014BF31
S214007EB040F400710021207902B0BDE8F04E01F0D8
S214007EC0FEB8B4F80300FEF71EFD02001EBFB4F8AD
S214007ED00500B2F84E10814206D0A2F84E001046B9
S214007EE0BDE8F64E00F047BFBDE8F38E05EBC600D2
S214007EF020446D1C00794844704738B505462878FC
S214007F00032846D0052831D0082815D00E2806D0DC
S214007F100F2808D030280AD03E2865D031BD284624
S214007F20BDE83240FAE52846BDE83240D7E500F025
S214007F3060F804005CD00EE000F05BF8040057D058
S214007F40697994F83000002914BF40F0010000F071
S214007F50FE0084F83000A878010014BF40F40071D9
S214007F6000212046BDE8344001F070BC00F041F826
S214007F7004003DD00020207440F6FF70208468790D
S214007F80010014BF40F400710021204601F0DAFB26
S214007F9025E01021681DFEF7D5FC040028D0A8783F
S214007FA090B9B5F803102046FEF753FCE87A28B1DE
S214007FB094F8300040F0010084F830002046BDE818
S214007FC03440002101F0D3BB00202074A8780100C3
S214007FD014BF40F400710021204601F0C8FB204683
S214007FE0BDE83240FEF738BC2846BDE8324056E6CB
S214007FF031BDB5F80300FEF786BC0146C248FFF760
S21400800066BBBE48C169002906BF806A00280120F9
S2140080107047BA49CA690020002A1CBF01F11C003B
S214008020FFF791BA704710B504F022FF040009D09C
S214008030607A20441030FFF760FF2046BDE810400D
S214008040FFF7C0B9FFF7E5FF18B1BDE8104000F034
S2140080509BBD10BD80B5002141F2090004F0E2FE90
S21400806000B981E283E280B510B1022818D001BDC4
S214008070042142F2240004F0D5FE20B9BDE80240F7
S21400808001200FE501BDFB21A0F803104FF6FF719C
S214008090A0F8051004F08BFFBDE80240022020E0A7
S2140080A004F0E6FE0028EDD0417A01440A7C0E2A50
S2140080B0E8D1897C914A01295160E3DBFFF782F918
S2140080C0DCE710B1022801D07047C3E7EAE410B13C
S2140080D0022805D0704700220321894800F07EBBA5
S2140080E0A1E7864A8949126851F8221008470220FB
S2140080F0F7E70020F5E7F8B5804D0446A88A002883
S2140081000CBF05F1200605F1240603E00768FFF71B
S21400811059F93760306820B1C168A142F6D00646EA
S214008120F8E794F82D00A98A19B129694018286142
S21400813002E0A9684018A860002084F82D00F1BD70
S21400814010B50446207C010018BF012802D140F279
S214008150811010BD032802D100F078F90CE003214D
S21400816040F2064004F05EFE00B940E200F07FF9FF
S2140081701321417104F01BFF01202074002010BD64
S21400818002B5018C40F6FF72914203D16846FFF7B4
S214008190CFF901BD0099012208E08B68C86023F082
S2140081A0060343EA42028A60002209680029F4D1E5
S2140081B05248818A0029009914BF24302030FFF7E6
S2140081C086FA04F0A1FE01BD38B50446062142F247
S2140081D0050004F027FE050001D1002032BD06226E
S2140081E02146E81CFFF704F8284604F0E0FEBDE848
S2140081F032407EE02DE9F0410E4617469846444947
S21400820084B01CC90546684619211CC042F23600D7
S21400821004F008FE040008BF00202AD0E5703DF8F0
S2140082201800A080A671300AE071677200202072E4
S214008230380AA0720020E0720D9820730A986073C6
S2140082400E9860757F20A0750120E0750020A0764E
S2140082500F98E0760B98A0730C9921B1062204F1D2
S2140082600F00FEF7C5FF204604F0A1FE2948FFF7E1
S21400827011FC04B0BDE8F08104F0D4FDBDE8024076
S21400828004F095BE70B504460D46072142F235004F
S21400829004F0C8FD060001D1002070BD00F036F9DC
S2140082A0304604F084FEBDE8704022E0F8B500F0E9
S2140082B042F842F2370004F0B5FD070001D1002075
S2140082C0F2BD00F03EF838460FE0A0F80550A0F8E2
S2140082D00760A0F809700699A0F80B100021A0F816
S2140082E00D104FF6FF71A0F80F1004F060FEBDE809
S2140082F0F2400848FFF7CEBB00000000F007002061
S2140083008C050020200800200C080020E457000000
S214008310D857000026080020F8B500F00CF842F206
S214008320380004F07FFD070001D10020F2BD00F008
S21400833008F83846D9E70D460446291D1646C9B240
S214008340704703203871FC7000207871BD712A4692
S2140083503146F81DFEF74CBFF8B500F021F842F2A2
S214008360390004F05FFD50B101210171C570310A7A
S214008370C1714471390A417286710772B5E7F2BD60
S214008380F8B500F00DF842F20B0004F04BFD30B1EA
S214008390C4708580C680077206994172A5E7F2BD53
S2140083A004460D4616461F460721704738B5044654
S2140083B00D46022142F20C0004F034FD30B1C470C8
S2140083C0057104F0F4FDBDE8324092E732BD2DE9B8
S2140083D0F843814609F11006032030700D4601204F
S2140083E01446B0770A9A09999846484600F0FCF970
S2140083F0192142F20D0004F015FD070008BF4FF4E6
S214008400C17021D0C820A7F80300A7F805000622EF
S2140084100020F87109F11101F079387207F10900AE
S214008420FEF7E6FEB07B012818BF0020F8733D82F9
S2140084307C82A7F814800898F882002038837C8312
S214008440384604F0B4FD0020BDE8F28380B5002174
S21400845042F20E0010E7F8B500F014F942F21300ED
S21400846004F0E0FC10B100F002F82EE7F2BD218C1B
S214008470A0F8031070472DE9F04100F068F8984620
S2140084801C2142F2190004F0CDFC070008BF4FF48F
S214008490C17013D0208CA7F8030008222946781D47
S2140084A0FEF7A6FEA7F80D601022414607F10F0062
S2140084B0FEF79EFE384604F07AFD0020BDE8F08107
S2140084C070B50D0004460AD1022142F21B0004F0EA
S2140084D0A9FC060012D0208CA6F803000EE012219C
S2140084E042F21A0004F09EFC060007D0208CA6F884
S2140084F0030010222946701DFEF77AFE01E000F008
S21400850005F83046BDE8704004F051BDF470062210
S2140085102946301DFEF76CBE70B500F018F8032132
S21400852042F2330004F07EFC00B92FE031E0F8B5EB
S21400853000F00DF81F46042142F2340004F072FCED
S21400854000B940E0C4700571467187713EE004468C
S2140085500D461646704780B5002142F21F0004F013
S21400856061FC00B900E002E04FF4C17002BD04F007
S2140085701EFD002002BD70B5FFF7E9FF032142F2A1
S214008580310004F04FFC00B900E002E04FF4C17087
S21400859070BDC4700571467104F009FD002070BD01
S2140085A0F8B5FFF7D4FF1F46062142F2320004F06A
S2140085B039FC00B907E0FFF75AFF45718671C771AD
S2140085C00699017202E04FF4C170F2BD04F0EFFCB0
S2140085D00020F2BD80B5002142F2180004F022FC13
S2140085E020B104F0E4FCBDE8024082E602BD4FF490
S2140085F0C17010BD10B50446022141F2054004F0DA
S21400860011FC00B9F3E7A0F8034004F0D0FC00200A
S21400861010BD38B504460D4606214FF6054004F059
S21400862001FC00B900E00CE04FF4C17032BD38B573
S21400863004460D4606214FF6064004F0F3FB00B94B
S214008640F2E7A0F80340C0F8055004F0B0FC0020A4
S21400865032BD38B504460D4605214FF6074004F0F6
S214008660E1FB00B9E0E7C4704560EEE7F8B500F05E
S21400867009F842F2200004F0D5FB10B1A0F8034040
S21400868023E6F2BD04460D4616461F460E217047E9
S2140086909C49086070479C490A680AB900207047E0
S2140086A0D2680021101A00D400D101210846704774
S2140086B010B5954A12684FF0FF3109E0D368146987
S2140086C05268E3181B1A23F000438B4298BF1946E2
S2140086D0002AF3D1084610BD10B50446606920B1E3
S2140086E0A168002958BF01F05EFD2046BDE8104095
S2140086F001F059BD84490020086070472DE9F84F05
S214008700814C25688046894692469B46002604E0B2
S2140087106F682846FFF7E0FF3D46BDB12868404534
S21400872002BFA86820F0004048450CD15FEA0B0065
S21400873003D068695146D84728B96868002E14BF28
S21400874070602060E4E72E466D68E6E7BDE8F18FCE
S21400875000230022D2E7F8B505001CBF28680028D1
S2140087600E4617461C4608D127B1002E5CBF384679
S21400877001F019FD4FF4C670F2BD182001F0F7FCA9
S21400878078B1002141618660476105600022069944
S2140087905D4B01615B4909686118C1601C6825462C
S2140087A00AE027B1002E5CBF384601F0FCFC4FF40F
S2140087B0C170F2BD2A466D683DB1EE68761AB6F114
S2140087C0004FF7D2EE688E42F4D012B944601860BB
S2140087D002E05168416050600020F2BD80B5002381
S2140087E00093FFF7B8FF02BD70B504460D46164667
S2140087F00C2001F0BCFC10B94FF4C17070BD456090
S2140088008660216801602060002070BD2DE9F0417F
S2140088100546002728680E469046002801E00746D1
S21400882020000ED042680168B24204BF826842450A
S2140088300C46F4D1002F0CBF2960396001F0B3FC60
S214008840EEE7BDE8F08138B504462F492068096890
S21400885007E00A68A24203D18A6802F000428A60F2
S21400886049680029F5D120B1056801F09CFC28462E
S214008870F9E7206031BD2DE9F04104000D46904631
S2140088800DD0276800E037464FB13E68B8687F686D
S21400889043462A462146B8470100F4D000E00020AF
S2140088A0BDE8F0812DE9F041164C174D20601AE026
S2140088B070682860B06840001CBF306800280FD081
S2140088C007686FB1B26850000AD0D7F80080B86861
S2140088D0736931687F68B84710B95FEA0807F1D155
S2140088E03046FFF7F9FE26683046FFF7D4FE18B18B
S2140088F02E68002EDCD1F6E73046BDE8F041D7E61C
S21400890000000000E4040020E8040020030000202B
S21400891013F0030F09D0521E22BF13F8010B11F8F3
S21400892001CBB0EB0C00F3D07047121F22BF53F8F8
S214008930040B51F804CB6045F7D0121D0AD200BADA
S2140089409CFA8CFCB0EB0C0038BF6FF0000088BFC0
S21400895001207047521E22BF13F8010B11F801CBFD
S214008960B0EB0C00F6D0521C08BF10467047FEE76E
S21400897030B5C2080D4B9C5C19B100F008F82043D6
S21400898003E000F004F824EA0000985430BD85089F
S21400899000EB5575ED080121A0EBC50001FA00F0CB
S2140089A070470248002101707047000077150020CC
S2140089B07047FEE7002104E0827A8918427A006850
S2140089C0891A0028F8D10846704780B500220FF2B1
S2140089D005116B48FFF708FF6A494020488001BD33
S2140089E076B504460D461046FFF7E4FF06460198A6
S2140089F00421FEF7DEFD28B901A8FEF799FD4FF425
S214008A00C17076BD0190417A0844103045800680DA
S214008A1020460199FFF7B4FB002076BD2DE9F04112
S214008A20804658480D4601784C1C164604701F4672
S214008A30102204210020FEF772FC10B94FF4C1701A
S214008A4016E0417A014401F11002052151800C2103
S214008A5011801221117154710821D180158156811F
S214008A6097810699D18101464046FFF789FB002091
S214008A70BDE8F08170B500F00FF800B91EE000F018
S214008A8013F813221DE070B500F006F800B915E0E3
S214008A9000F00AF8012214E004460D4616460A22A3
S214008AA004210020FEF73BBC417A01441031052228
S214008AB04A804D7106220A800E8170474FF4C170BD
S214008AC070BD0A710222CA8001462046FFF758FB95
S214008AD0002070BD80B5062A01BF2A4801891A8881
S214008AE091420AD1002101819A7802B10122018ABD
S214008AF0C068FFF7BFFF012002BD002002BDF8B529
S214008B000D4604462879122802D013282CD02FE0D0
S214008B1094F82E0002282BD0298940F67B408A1F25
S214008B2082423EBF6A89931F834213D28A4211D380
S214008B30AB89B3F5FA7F0DDAE889A0F10A0640F6AC
S214008B407747BE4206D200902046FFF784FC0D49C8
S214008B50088128B969792046BDE8F840012289E7EE
S214008B60CC6068790882F1BD94F82E00012805D102
S214008B7069792046BDE8F840002284E7F1BD000090
S214008B808C0500201009002031B5417A084400F118
S214008B9010052888C0F30B00FDF7B5FE040003D1CE
S214008BA06846FEF7C5FC31BD0098C460288800F40E
S214008BB04051C0F30B00B1F5805F288004D10098C7
S214008BC0806820F0020007E004F12400FEF7B0FC05
S214008BD00098806840F0020000998860009800992C
S214008BE0407A001D487204F124000099FEF76FFDDC
S214008BF0606A0146002201E00968521C0029FBD188
S214008C00D2B2022AA8BFFEF7FFFD606AFFF7D2FEC7
S214008C1004282AD3606A417A014401F11005FFF75F
S214008C20C9FE2988091D81421FD1688804280DD0F5
S214008C3017D3062805D014D229462046FFF75FFF33
S214008C400FE0616A204602F054FA07E0606A417A53
S214008C50091D4172A06B616A04F01DFB0020606272
S214008C6031BD04F12400FEF763FC31BD0A43104019
S214008C70884201D10120704700207047012802BFBA
S214008C80487900F0C000402801D10120704700203C
S214008C907047F8B5DFF8F46C0C46717D88420546DF
S214008CA001D2202B00DBC0E100210020FEF73FFBB5
S214008CB0070002D14FF4C170F2BD706800EB451595
S214008CC044B905F11800FEF733FCE868AF6140F0E0
S214008CD0100007E005F11C00FEF72AFCE868EF61CB
S214008CE040F02000E860E6E110B5DFF8A04C6075C3
S214008CF04101002301220720FEF76AFE0720FEF747
S214008D0099FE606010BDDFF8840C0021016014E05D
S214008D10426802EB4112002313605360491CA023F3
S214008D2013814FF4A07353810723937400231375A4
S214008D301382D360D3749361D361427D9142E7DBA3
S214008D40642101810022C8214181002181816421A2
S214008D50C18110210182418200210175C161016239
S214008D60816100F8241F0F214170DFF8C00C0FF658
S214008D70C141FFF739BD10B504460C2001F0F7F9E4
S214008D8018B304F11F010A780270497C01F00B0148
S214008D90012909D0032902D00B2902D003E00221C1
S214008DA002E0032100E00021017204F148010A8874
S214008DB042804A88C2808A8882800246C988418169
S214008DC040F20911BDE81040E9E010BD38B5044690
S214008DD00D46022001F0CBF9E0B1E17F0170012DD4
S214008DE010D0022D0CD0032D08D0072D04D00B2D4B
S214008DF00CBF0821002106E0042104E00C2102E05B
S214008E00022100E0012141700246BDE8384040F2F0
S214008E100721C4E031BDF8B50446DFF8705B0846AC
S214008E20E969002904BF2A6A002A1BD0A869DFF86E
S214008E30FC6B20F00200A86140F2071739B18C7273
S214008E403946EA693046FFF7C9FC0020E861286A1F
S214008E50A0B1847239462A6A3046FFF7BFFC00206C
S214008E6028620BE0FDF783FD40B1C16880F83C4006
S214008E7041F00101C160002100F079FC0020FDF7FF
S214008E8076FD20B1BDE8F240113004F04DBBF1BDD7
S214008E9030B5921E002300E01B199A4208DBCC185E
S214008EA06478844201D1C81830BDCC5C2500F3D16B
S214008EB0002030BD38B50446DFF8D05A6078042864
S214008EC02CD0A86940084000A86104F10C01E27AA1
S214008ED00120FFF7DDFF002100B181782868012816
S214008EE002D0022807D009E0C80707D42046BDE80C
S214008EF0324001F058B911F0030FF7D0607AE11C48
S214008F00FFF7BCFE58B3E01C04F00EFB0028EDD0C3
S214008F10A869EC6140F00200A86131BD607AE11CEE
S214008F20FFF7ACFED8B1E86930B1C11C0622E01CE0
S214008F30FFF7ECFC0028D9D1287E800705D5286AE3
S214008F4008B101F030F92C6231BDE01C04F0ECFAF7
S214008F500028CBD0A86940F00200A861F3E7607A49
S214008F60010003D10622E11C002009E0012802BF0F
S214008F70207A00F0C000C02805D10622E11C01209E
S214008F8004F055FC00E0FF20A0722246A9690120EB
S214008F9060F30101A96140F20711BDE83840DFF82F
S214008FA08C0AFFF71BBCF8B50D461646AE421F46A8
S214008FB03BD3A91F40F67B42914236D2B6F5486FA6
S214008FC033DCB7F5FA7F30DA069CA4F10A0340F6E4
S214008FD077418B4229D27A1C06FB02F1B1EB840F53
S214008FE023DAFF2807D1DFF8A409058146818781A7
S214008FF0C4810020F2BDFDF791FC00281EBF00F1E1
S21400900017010A78102A10D0C97D009401293B4622
S2140090103246294606D1FFF71EFA0028E9D140F26B
S2140090208110F2BDFFF7FAFCF2BD4FF4C070F2BD3E
S21400903030B5039C2025234307D0DFF8743A53F855
S2140090402430022B14BF032BA025A84228BFA94218
S2140090500AD344F201039942B8BF984204DA814227
S21400906002D3082A00DA0AB9002030BD012030BD3C
S214009070F8B50C46DFF814191E464B7D9842154687
S2140090800DD2496801EB401732467868C0B20090AE
S21400909029463868C3B22046FFF7CAFF00B9C4E7BE
S2140090A006F00700B8743C817D8106983875F8682C
S2140090B040F00100F86000F0A6F90020F2BD70B59F
S2140090C00D46DFF8C8181E464B7D04469C421046E7
S2140090D01CD245B9FDF717FCC0B180F83D40002111
S2140090E0BDE8704043E3486800EB4410002101608F
S2140090F041600C2001F03BF8020007D01470556068
S21400910016814FF48471BDE8704048E770BD10B515
S2140091100C46FDF703FC00B911E0008C2146BDE8C3
S2140091201040FFF776BA10B50C46FDF7F7FB00B90E
S21400913005E0008C2146BDE81040FFF778BA4FF4F2
S214009140C07010BD10B50C46F0210C4282B002D1A2
S214009150FDF7E4FB10B94FF4C07016BD002104F013
S2140091600302630744BF42F004020221230744BF00
S21400917042F0040241F00101009113460021FFF77E
S2140091800FFA16BD010001D0042802DB4FF4C070B0
S214009190704702460020FFF7EEB910B543F6FD73A0
S2140091A0041F9C423CBF0C1F9C4201D2884200D246
S2140091B0C5E7DFF8D837188259821A75986940F0E3
S2140091C00C00986100F01FF9002010BD2DE9F04D4D
S2140091D00D46DFF8B8B70BF104019A464B7C98426F
S2140091E094B016461ED21C9C022C1BDA012C00D111
S2140091F0C6B9A8460968B8F1050FB8BF042E01EB3A
S21400920040170FDA022E05D1FDF7DDFB10B940F24C
S214009210092074E00096BA7C798938892B46FFF7D6
S21400922007FF10B94FF4C07069E03868804504BF86
S2140092307868864205D1398A8A4504BFF97C8C4213
S2140092405CD0B8F1040F18BF56EA05003ED0012DD9
S21400925002D0022D02D003E0012002E0022000E04E
S2140092600020796809B940F0040001A9009102AB1A
S2140092700DF105020AA900F097FB9DF805000028ED
S21400928040D003460AAA00210020FEF750F8050049
S21400929038D007F11800FEF74BF9BD61F86840F0CA
S2140092A01000F8609DF8040080B1034602AA002171
S2140092B00020FEF73CF8050008D007F11C00FEF77A
S2140092C037F9FD61F86840F02000F860A7F810A0B4
S2140092D0C7F800807E60FC74012C1CBF9BF824003D
S2140092E0012803D1F86840F00400F860F86840F000
S2140092F00300F86000F05BF800F085F8002014B07A
S214009300BDE8F08DF86840F00200F8600020386094
S214009310786000F078F84FF4C170F0E7DFF86C067C
S214009320016849B900E0491C427D914206DA42686C
S2140093304B01D258002AF6D0012070470020704713
S21400934070B50546022D0E4602DB4FF4C07070BDA8
S214009350FFF7E4FF10B140F2811070BDDFF82C0675
S21400936000F11804227B95421FD0012D257312D1DF
S2140093700621263000F01DFD10B10021217370BDBE
S2140093803000206840F0400008BF0F26206066735B
S21400939000F039F809E04FF48571DFF89006FFF722
S2140093A0D7F9206820F080002060002070BDDFF82C
S2140093B0DC0510B500F1180482B02178090621D426
S2140093C0217BF9B10621263000F0F3FCFFF7A6FF5B
S2140093D0C0B1002000904FF47A72607BDFF8D4169C
S2140093E0A1FB0001002304F0C1FA034600224FF45B
S2140093F08571DFF83806FFF7AEF918B9206840F037
S2140094008000206013BD70B5DFF88045E08A002834
S21400941088B02BD1002500E06D1C617DE8B2884243
S21400942080F090806068EDB200EB4516F068C106EB
S2140094300CD5B06900F0D1F8FEF738FFE082F0688E
S21400944020F01000F06006F118000DE081060ED541
S214009450F06900F0C2F8FEF75FFFE082F06820F0E7
S2140094602000F06006F11C00FEF762F8B0E0002273
S2140094700921FFF7FBFB10B3F07C317D01281BBFF1
S21400948094F8240001280120002005910021049171
S214009490B17C0391009006A9029100210191DFF8AA
S2140094A01006716850F8210072893189C3B22846C7
S2140094B0FEF7A0FEE082F0684008400027E0F06873
S2140094C000220C21FFF7D2FB88B1F07C012804F1C2
S2140094D0260104D16946062004F0F3FA69462846B8
S2140094E0FEF7D0FEE082F06820F004000FE0F0689F
S2140094F008220221FFF7BAFB58B100230022002100
S2140095002846FEF729FFE082F06840F00800F06089
S2140095105EE0F06800220A21FFF7A8FB002808D0CA
S214009520F06820F00A00F0607068002804BF306819
S21400953000283FF471AF338A002201212846FEF747
S2140095400BFF44E0A5690022142100F043F888B11F
S21400955094F82400628A218A01280CBF0123002384
S21400956000200090207DFEF70BFFE082A06920F02F
